{
  "_format": "hh-sol-artifact-1",
  "contractName": "Settings",
  "sourceName": "contracts/Settings.sol",
  "abi": [
    {
      "inputs": [],
      "stateMutability": "nonpayable",
      "type": "constructor"
    },
    {
      "anonymous": false,
      "inputs": [
        {
          "indexed": true,
          "internalType": "address",
          "name": "previousOwner",
          "type": "address"
        },
        {
          "indexed": true,
          "internalType": "address",
          "name": "newOwner",
          "type": "address"
        }
      ],
      "name": "OwnershipTransferred",
      "type": "event"
    },
    {
      "inputs": [],
      "name": "maxSupply",
      "outputs": [
        {
          "internalType": "uint256",
          "name": "",
          "type": "uint256"
        }
      ],
      "stateMutability": "view",
      "type": "function"
    },
    {
      "inputs": [],
      "name": "owner",
      "outputs": [
        {
          "internalType": "address",
          "name": "",
          "type": "address"
        }
      ],
      "stateMutability": "view",
      "type": "function"
    },
    {
      "inputs": [],
      "name": "renounceOwnership",
      "outputs": [],
      "stateMutability": "nonpayable",
      "type": "function"
    },
    {
      "inputs": [
        {
          "internalType": "address",
          "name": "newOwner",
          "type": "address"
        }
      ],
      "name": "transferOwnership",
      "outputs": [],
      "stateMutability": "nonpayable",
      "type": "function"
    },
    {
      "inputs": [
        {
          "internalType": "uint256",
          "name": "_newSupply",
          "type": "uint256"
        }
      ],
      "name": "updateMaxSupply",
      "outputs": [],
      "stateMutability": "nonpayable",
      "type": "function"
    }
  ],
  "bytecode": "0x608060405234801561001057600080fd5b5061002d61002261003a60201b60201c565b61004260201b60201c565b600a600181905550610106565b600033905090565b60008060009054906101000a900473ffffffffffffffffffffffffffffffffffffffff169050816000806101000a81548173ffffffffffffffffffffffffffffffffffffffff021916908373ffffffffffffffffffffffffffffffffffffffff1602179055508173ffffffffffffffffffffffffffffffffffffffff168173ffffffffffffffffffffffffffffffffffffffff167f8be0079c531659141344cd1fd0a4f28419497f9722a3daafe3b4186f6b6457e060405160405180910390a35050565b610667806101156000396000f3fe608060405234801561001057600080fd5b50600436106100575760003560e01c8063715018a61461005c5780638da5cb5b14610066578063d5abeb0114610084578063f103b433146100a2578063f2fde38b146100be575b600080fd5b6100646100da565b005b61006e610162565b60405161007b919061041c565b60405180910390f35b61008c61018b565b6040516100999190610450565b60405180910390f35b6100bc60048036038101906100b7919061049c565b610191565b005b6100d860048036038101906100d391906104f5565b610217565b005b6100e261030f565b73ffffffffffffffffffffffffffffffffffffffff16610100610162565b73ffffffffffffffffffffffffffffffffffffffff1614610156576040517f08c379a000000000000000000000000000000000000000000000000000000000815260040161014d9061057f565b60405180910390fd5b6101606000610317565b565b60008060009054906101000a900473ffffffffffffffffffffffffffffffffffffffff16905090565b60015481565b61019961030f565b73ffffffffffffffffffffffffffffffffffffffff166101b7610162565b73ffffffffffffffffffffffffffffffffffffffff161461020d576040517f08c379a00000000000000000000000000000000000000000000000000000000081526004016102049061057f565b60405180910390fd5b8060018190555050565b61021f61030f565b73ffffffffffffffffffffffffffffffffffffffff1661023d610162565b73ffffffffffffffffffffffffffffffffffffffff1614610293576040517f08c379a000000000000000000000000000000000000000000000000000000000815260040161028a9061057f565b60405180910390fd5b600073ffffffffffffffffffffffffffffffffffffffff168173ffffffffffffffffffffffffffffffffffffffff161415610303576040517f08c379a00000000000000000000000000000000000000000000000000000000081526004016102fa90610611565b60405180910390fd5b61030c81610317565b50565b600033905090565b60008060009054906101000a900473ffffffffffffffffffffffffffffffffffffffff169050816000806101000a81548173ffffffffffffffffffffffffffffffffffffffff021916908373ffffffffffffffffffffffffffffffffffffffff1602179055508173ffffffffffffffffffffffffffffffffffffffff168173ffffffffffffffffffffffffffffffffffffffff167f8be0079c531659141344cd1fd0a4f28419497f9722a3daafe3b4186f6b6457e060405160405180910390a35050565b600073ffffffffffffffffffffffffffffffffffffffff82169050919050565b6000610406826103db565b9050919050565b610416816103fb565b82525050565b6000602082019050610431600083018461040d565b92915050565b6000819050919050565b61044a81610437565b82525050565b60006020820190506104656000830184610441565b92915050565b600080fd5b61047981610437565b811461048457600080fd5b50565b60008135905061049681610470565b92915050565b6000602082840312156104b2576104b161046b565b5b60006104c084828501610487565b91505092915050565b6104d2816103fb565b81146104dd57600080fd5b50565b6000813590506104ef816104c9565b92915050565b60006020828403121561050b5761050a61046b565b5b6000610519848285016104e0565b91505092915050565b600082825260208201905092915050565b7f4f776e61626c653a2063616c6c6572206973206e6f7420746865206f776e6572600082015250565b6000610569602083610522565b915061057482610533565b602082019050919050565b600060208201905081810360008301526105988161055c565b9050919050565b7f4f776e61626c653a206e6577206f776e657220697320746865207a65726f206160008201527f6464726573730000000000000000000000000000000000000000000000000000602082015250565b60006105fb602683610522565b91506106068261059f565b604082019050919050565b6000602082019050818103600083015261062a816105ee565b905091905056fea2646970667358221220389af48643479c35dccfb54f29da21bc9941ca1bb21874bd9918878c07aee88464736f6c63430008090033",
  "linkReferences": {},
  "deployedLinkReferences": {}
}